{
  "transactions": [
    {
      "hash": "0xffc0f7ad7f6c76ce336468286f4b6aeecd2ce6f1e86e6157382a0c2b0bbd62b9",
      "transactionType": "CALL",
      "contractName": "Registry",
      "contractAddress": "0x500684cBaa280aDf80d5ACf7A32Daebb23162e63",
      "function": "deploy(bytes,bytes,bytes32,bytes,bytes32)",
      "arguments": [
        "0x608060405234801561001057600080fd5b5061056c806100206000396000f3fe608060405234801561001057600080fd5b50600436106100575760003560e01c806301ffc9a71461005c578063022914a71461008457806313af4035146100c55780631626ba7e14610104578063fff35b7214610130575b600080fd5b61006f61006a3660046102fb565b610151565b60405190151581526020015b60405180910390f35b6100ad610092366004610344565b6000602081905290815260409020546001600160a01b031681565b6040516001600160a01b03909116815260200161007b565b6101026100d3366004610344565b33600090815260208190526040902080546001600160a01b0319166001600160a01b0392909216919091179055565b005b610117610112366004610404565b61018b565b6040516001600160e01b0319909116815260200161007b565b61014361013e36600461044b565b61020c565b60405190815260200161007b565b60006001600160e01b03198216630b135d3f60e11b148061018557506001600160e01b0319821660016206524760e11b0319145b92915050565b6000806101bd846020527b19457468657265756d205369676e6564204d6573736167653a0a3332600052603c60042090565b90506101c981846102a2565b336000908152602081905260409020546001600160a01b039081169116146101fc57506001600160e01b03199050610185565b50630b135d3f60e11b9392505050565b60008061023e836020527b19457468657265756d205369676e6564204d6573736167653a0a3332600052603c60042090565b90506000610250610140860186610496565b81019061025d91906104e4565b50905061026a82826102a2565b336000908152602081905260409020546001600160a01b0390811691161461029757600192505050610185565b506000949350505050565b6000604051825184600052606084015160001a602052602084015160405260408401516060526020600160806000604185145afa519250503d6102ed57638baa579f6000526004601cfd5b600060605260405292915050565b60006020828403121561030d57600080fd5b81356001600160e01b03198116811461032557600080fd5b9392505050565b6001600160a01b038116811461034157600080fd5b50565b60006020828403121561035657600080fd5b81356103258161032c565b634e487b7160e01b600052604160045260246000fd5b600082601f83011261038857600080fd5b813567ffffffffffffffff808211156103a3576103a3610361565b604051601f8301601f19908116603f011681019082821181831017156103cb576103cb610361565b816040528381528660208588010111156103e457600080fd5b836020870160208301376000602085830101528094505050505092915050565b6000806040838503121561041757600080fd5b82359150602083013567ffffffffffffffff81111561043557600080fd5b61044185828601610377565b9150509250929050565b6000806040838503121561045e57600080fd5b823567ffffffffffffffff81111561047557600080fd5b8301610160818603121561048857600080fd5b946020939093013593505050565b6000808335601e198436030181126104ad57600080fd5b83018035915067ffffffffffffffff8211156104c857600080fd5b6020019150368190038213156104dd57600080fd5b9250929050565b600080604083850312156104f757600080fd5b823567ffffffffffffffff81111561050e57600080fd5b61051a85828601610377565b925050602083013561052b8161032c565b80915050925092905056fea26469706673582212201714da7e4580b5698662cec465c65d0fa401c9fbe11fa51a53f592ae1ba95f2d64736f6c63430008170033",
        "0x",
        "0x0000000000000000000000000000000000000000000000000000000000000000",
        "0x",
        "0xb9b4999cbba6cde047b368adda06dbadc43fa3e6673c373ed46aac455ed4e521"
      ],
      "transaction": {
        "type": "0x02",
        "from": "0x8749313f626b100b822d573c71dfffdaca383032",
        "to": "0x500684cbaa280adf80d5acf7a32daebb23162e63",
        "gas": "0x9e32f",
        "value": "0x0",
        "data": "0xdcfb43a200000000000000000000000000000000000000000000000000000000000000a0000000000000000000000000000000000000000000000000000000000000066000000000000000000000000000000000000000000000000000000000000000000000000000000000000000000000000000000000000000000000000000000680b9b4999cbba6cde047b368adda06dbadc43fa3e6673c373ed46aac455ed4e521000000000000000000000000000000000000000000000000000000000000058c608060405234801561001057600080fd5b5061056c806100206000396000f3fe608060405234801561001057600080fd5b50600436106100575760003560e01c806301ffc9a71461005c578063022914a71461008457806313af4035146100c55780631626ba7e14610104578063fff35b7214610130575b600080fd5b61006f61006a3660046102fb565b610151565b60405190151581526020015b60405180910390f35b6100ad610092366004610344565b6000602081905290815260409020546001600160a01b031681565b6040516001600160a01b03909116815260200161007b565b6101026100d3366004610344565b33600090815260208190526040902080546001600160a01b0319166001600160a01b0392909216919091179055565b005b610117610112366004610404565b61018b565b6040516001600160e01b0319909116815260200161007b565b61014361013e36600461044b565b61020c565b60405190815260200161007b565b60006001600160e01b03198216630b135d3f60e11b148061018557506001600160e01b0319821660016206524760e11b0319145b92915050565b6000806101bd846020527b19457468657265756d205369676e6564204d6573736167653a0a3332600052603c60042090565b90506101c981846102a2565b336000908152602081905260409020546001600160a01b039081169116146101fc57506001600160e01b03199050610185565b50630b135d3f60e11b9392505050565b60008061023e836020527b19457468657265756d205369676e6564204d6573736167653a0a3332600052603c60042090565b90506000610250610140860186610496565b81019061025d91906104e4565b50905061026a82826102a2565b336000908152602081905260409020546001600160a01b0390811691161461029757600192505050610185565b506000949350505050565b6000604051825184600052606084015160001a602052602084015160405260408401516060526020600160806000604185145afa519250503d6102ed57638baa579f6000526004601cfd5b600060605260405292915050565b60006020828403121561030d57600080fd5b81356001600160e01b03198116811461032557600080fd5b9392505050565b6001600160a01b038116811461034157600080fd5b50565b60006020828403121561035657600080fd5b81356103258161032c565b634e487b7160e01b600052604160045260246000fd5b600082601f83011261038857600080fd5b813567ffffffffffffffff808211156103a3576103a3610361565b604051601f8301601f19908116603f011681019082821181831017156103cb576103cb610361565b816040528381528660208588010111156103e457600080fd5b836020870160208301376000602085830101528094505050505092915050565b6000806040838503121561041757600080fd5b82359150602083013567ffffffffffffffff81111561043557600080fd5b61044185828601610377565b9150509250929050565b6000806040838503121561045e57600080fd5b823567ffffffffffffffff81111561047557600080fd5b8301610160818603121561048857600080fd5b946020939093013593505050565b6000808335601e198436030181126104ad57600080fd5b83018035915067ffffffffffffffff8211156104c857600080fd5b6020019150368190038213156104dd57600080fd5b9250929050565b600080604083850312156104f757600080fd5b823567ffffffffffffffff81111561050e57600080fd5b61051a85828601610377565b925050602083013561052b8161032c565b80915050925092905056fea26469706673582212201714da7e4580b5698662cec465c65d0fa401c9fbe11fa51a53f592ae1ba95f2d64736f6c63430008170033000000000000000000000000000000000000000000000000000000000000000000000000000000000000000000000000000000000000000000000000000000000000000000000000000000000000000000000000",
        "nonce": "0x175",
        "accessList": []
      },
      "additionalContracts": [
        {
          "transactionType": "CREATE2",
          "address": "0xb47639D435AFc195C9B05aF77393c34cDBd40B0a",
          "initCode": "0x608060405234801561001057600080fd5b5061056c806100206000396000f3fe608060405234801561001057600080fd5b50600436106100575760003560e01c806301ffc9a71461005c578063022914a71461008457806313af4035146100c55780631626ba7e14610104578063fff35b7214610130575b600080fd5b61006f61006a3660046102fb565b610151565b60405190151581526020015b60405180910390f35b6100ad610092366004610344565b6000602081905290815260409020546001600160a01b031681565b6040516001600160a01b03909116815260200161007b565b6101026100d3366004610344565b33600090815260208190526040902080546001600160a01b0319166001600160a01b0392909216919091179055565b005b610117610112366004610404565b61018b565b6040516001600160e01b0319909116815260200161007b565b61014361013e36600461044b565b61020c565b60405190815260200161007b565b60006001600160e01b03198216630b135d3f60e11b148061018557506001600160e01b0319821660016206524760e11b0319145b92915050565b6000806101bd846020527b19457468657265756d205369676e6564204d6573736167653a0a3332600052603c60042090565b90506101c981846102a2565b336000908152602081905260409020546001600160a01b039081169116146101fc57506001600160e01b03199050610185565b50630b135d3f60e11b9392505050565b60008061023e836020527b19457468657265756d205369676e6564204d6573736167653a0a3332600052603c60042090565b90506000610250610140860186610496565b81019061025d91906104e4565b50905061026a82826102a2565b336000908152602081905260409020546001600160a01b0390811691161461029757600192505050610185565b506000949350505050565b6000604051825184600052606084015160001a602052602084015160405260408401516060526020600160806000604185145afa519250503d6102ed57638baa579f6000526004601cfd5b600060605260405292915050565b60006020828403121561030d57600080fd5b81356001600160e01b03198116811461032557600080fd5b9392505050565b6001600160a01b038116811461034157600080fd5b50565b60006020828403121561035657600080fd5b81356103258161032c565b634e487b7160e01b600052604160045260246000fd5b600082601f83011261038857600080fd5b813567ffffffffffffffff808211156103a3576103a3610361565b604051601f8301601f19908116603f011681019082821181831017156103cb576103cb610361565b816040528381528660208588010111156103e457600080fd5b836020870160208301376000602085830101528094505050505092915050565b6000806040838503121561041757600080fd5b82359150602083013567ffffffffffffffff81111561043557600080fd5b61044185828601610377565b9150509250929050565b6000806040838503121561045e57600080fd5b823567ffffffffffffffff81111561047557600080fd5b8301610160818603121561048857600080fd5b946020939093013593505050565b6000808335601e198436030181126104ad57600080fd5b83018035915067ffffffffffffffff8211156104c857600080fd5b6020019150368190038213156104dd57600080fd5b9250929050565b600080604083850312156104f757600080fd5b823567ffffffffffffffff81111561050e57600080fd5b61051a85828601610377565b925050602083013561052b8161032c565b80915050925092905056fea26469706673582212201714da7e4580b5698662cec465c65d0fa401c9fbe11fa51a53f592ae1ba95f2d64736f6c63430008170033"
        }
      ],
      "isFixedGasLimit": false
    }
  ],
  "receipts": [
    {
      "transactionHash": "0xffc0f7ad7f6c76ce336468286f4b6aeecd2ce6f1e86e6157382a0c2b0bbd62b9",
      "transactionIndex": "0x10",
      "blockHash": "0x707eebfc7584a4f4d1d1db543d9f555fc03a3fabbe06c964aa5f9ee65457b1d8",
      "blockNumber": "0x299f934",
      "from": "0x8749313F626B100b822D573c71dFffDaca383032",
      "to": "0x500684cBaa280aDf80d5ACf7A32Daebb23162e63",
      "cumulativeGasUsed": "0x27f824",
      "gasUsed": "0x6c314",
      "contractAddress": null,
      "logs": [
        {
          "address": "0x500684cBaa280aDf80d5ACf7A32Daebb23162e63",
          "topics": [
            "0x15a8d94fb634b80d8d430ee02530a43e6317511bed9a6e18b2414bb89a0bd0df",
            "0x000000000000000000000000b47639d435afc195c9b05af77393c34cdbd40b0a",
            "0x0000000000000000000000000000000000000000000000000000000000000000"
          ],
          "data": "0xb9b4999cbba6cde047b368adda06dbadc43fa3e6673c373ed46aac455ed4e521",
          "blockHash": "0x707eebfc7584a4f4d1d1db543d9f555fc03a3fabbe06c964aa5f9ee65457b1d8",
          "blockNumber": "0x299f934",
          "transactionHash": "0xffc0f7ad7f6c76ce336468286f4b6aeecd2ce6f1e86e6157382a0c2b0bbd62b9",
          "transactionIndex": "0x10",
          "logIndex": "0x3b",
          "removed": false
        },
        {
          "address": "0x0000000000000000000000000000000000001010",
          "topics": [
            "0x4dfe1bbbcf077ddc3e01291eea2d5c70c2b422b415d95645b9adcfd678cb1d63",
            "0x0000000000000000000000000000000000000000000000000000000000001010",
            "0x0000000000000000000000008749313f626b100b822d573c71dfffdaca383032",
            "0x000000000000000000000000c275dc8be39f50d12f66b6a63629c39da5bae5bd"
          ],
          "data": "0x0000000000000000000000000000000000000000000000000003399503faa458000000000000000000000000000000000000000000000000011bb641831f76d80000000000000000000000000000000000000000000013afc9ecf52e7763ecce00000000000000000000000000000000000000000000000001187cac7f24d2800000000000000000000000000000000000000000000013afc9f02ec37b5e9126",
          "blockHash": "0x707eebfc7584a4f4d1d1db543d9f555fc03a3fabbe06c964aa5f9ee65457b1d8",
          "blockNumber": "0x299f934",
          "transactionHash": "0xffc0f7ad7f6c76ce336468286f4b6aeecd2ce6f1e86e6157382a0c2b0bbd62b9",
          "transactionIndex": "0x10",
          "logIndex": "0x3c",
          "removed": false
        }
      ],
      "status": "0x1",
      "logsBloom": "0x00090000000000000000000000000000000000000000000000000000000000000000000000000000000000000000000000008000002000000000000002000000000000000000000800000000000000800000000000000000040100000000000000000000020000000000000000000800000000000400000080000000000000000000000000000000002002000000000000000000008000000000000000000000200000000000000000000000000000000000020000000000000040000000004000000000000000000001000000000000000000000000000000100000000020000040000000000000000000000000000000000000000000000000800000100000",
      "type": "0x2",
      "effectiveGasPrice": "0x7a174a2e"
    }
  ],
  "libraries": [],
  "pending": [],
  "returns": {},
  "timestamp": 1702746225,
  "chain": 80001,
  "multi": false,
  "commit": "88e10c1"
}