{
  "transactions": [
    {
      "hash": "0x2711f080d512ca36f81824c1dc253cae99bcf44619d8dbc57515a7d4914dbadc",
      "transactionType": "CALL",
      "contractName": "Registry",
      "contractAddress": "0xE6b4923Ca38A5310b96784e732a52BF4999ee6Ab",
      "function": "deploy(bytes,bytes,bytes32,bytes,bytes32)",
      "arguments": [
        "0x608060405234801561001057600080fd5b5061056c806100206000396000f3fe608060405234801561001057600080fd5b50600436106100575760003560e01c806301ffc9a71461005c578063022914a71461008457806313af4035146100c55780631626ba7e14610104578063fff35b7214610130575b600080fd5b61006f61006a3660046102fb565b610151565b60405190151581526020015b60405180910390f35b6100ad610092366004610344565b6000602081905290815260409020546001600160a01b031681565b6040516001600160a01b03909116815260200161007b565b6101026100d3366004610344565b33600090815260208190526040902080546001600160a01b0319166001600160a01b0392909216919091179055565b005b610117610112366004610404565b61018b565b6040516001600160e01b0319909116815260200161007b565b61014361013e36600461044b565b61020c565b60405190815260200161007b565b60006001600160e01b03198216630b135d3f60e11b148061018557506001600160e01b0319821660016206524760e11b0319145b92915050565b6000806101bd846020527b19457468657265756d205369676e6564204d6573736167653a0a3332600052603c60042090565b90506101c981846102a2565b336000908152602081905260409020546001600160a01b039081169116146101fc57506001600160e01b03199050610185565b50630b135d3f60e11b9392505050565b60008061023e836020527b19457468657265756d205369676e6564204d6573736167653a0a3332600052603c60042090565b90506000610250610140860186610496565b81019061025d91906104e4565b50905061026a82826102a2565b336000908152602081905260409020546001600160a01b0390811691161461029757600192505050610185565b506000949350505050565b6000604051825184600052606084015160001a602052602084015160405260408401516060526020600160806000604185145afa519250503d6102ed57638baa579f6000526004601cfd5b600060605260405292915050565b60006020828403121561030d57600080fd5b81356001600160e01b03198116811461032557600080fd5b9392505050565b6001600160a01b038116811461034157600080fd5b50565b60006020828403121561035657600080fd5b81356103258161032c565b634e487b7160e01b600052604160045260246000fd5b600082601f83011261038857600080fd5b813567ffffffffffffffff808211156103a3576103a3610361565b604051601f8301601f19908116603f011681019082821181831017156103cb576103cb610361565b816040528381528660208588010111156103e457600080fd5b836020870160208301376000602085830101528094505050505092915050565b6000806040838503121561041757600080fd5b82359150602083013567ffffffffffffffff81111561043557600080fd5b61044185828601610377565b9150509250929050565b6000806040838503121561045e57600080fd5b823567ffffffffffffffff81111561047557600080fd5b8301610160818603121561048857600080fd5b946020939093013593505050565b6000808335601e198436030181126104ad57600080fd5b83018035915067ffffffffffffffff8211156104c857600080fd5b6020019150368190038213156104dd57600080fd5b9250929050565b600080604083850312156104f757600080fd5b823567ffffffffffffffff81111561050e57600080fd5b61051a85828601610377565b925050602083013561052b8161032c565b80915050925092905056fea26469706673582212201714da7e4580b5698662cec465c65d0fa401c9fbe11fa51a53f592ae1ba95f2d64736f6c63430008170033",
        "0x",
        "0x0000000000000000000000000000000000000000000000000000000000000000",
        "0x",
        "0x0cd0a23290a2d12b6053211f0330f671750c749a5da65bb42f91ff0af74d3a58"
      ],
      "transaction": {
        "type": "0x02",
        "from": "0x8749313f626b100b822d573c71dfffdaca383032",
        "to": "0xe6b4923ca38a5310b96784e732a52bf4999ee6ab",
        "gas": "0x956ac",
        "value": "0x0",
        "data": "0xdcfb43a200000000000000000000000000000000000000000000000000000000000000a00000000000000000000000000000000000000000000000000000000000000660000000000000000000000000000000000000000000000000000000000000000000000000000000000000000000000000000000000000000000000000000006800cd0a23290a2d12b6053211f0330f671750c749a5da65bb42f91ff0af74d3a58000000000000000000000000000000000000000000000000000000000000058c608060405234801561001057600080fd5b5061056c806100206000396000f3fe608060405234801561001057600080fd5b50600436106100575760003560e01c806301ffc9a71461005c578063022914a71461008457806313af4035146100c55780631626ba7e14610104578063fff35b7214610130575b600080fd5b61006f61006a3660046102fb565b610151565b60405190151581526020015b60405180910390f35b6100ad610092366004610344565b6000602081905290815260409020546001600160a01b031681565b6040516001600160a01b03909116815260200161007b565b6101026100d3366004610344565b33600090815260208190526040902080546001600160a01b0319166001600160a01b0392909216919091179055565b005b610117610112366004610404565b61018b565b6040516001600160e01b0319909116815260200161007b565b61014361013e36600461044b565b61020c565b60405190815260200161007b565b60006001600160e01b03198216630b135d3f60e11b148061018557506001600160e01b0319821660016206524760e11b0319145b92915050565b6000806101bd846020527b19457468657265756d205369676e6564204d6573736167653a0a3332600052603c60042090565b90506101c981846102a2565b336000908152602081905260409020546001600160a01b039081169116146101fc57506001600160e01b03199050610185565b50630b135d3f60e11b9392505050565b60008061023e836020527b19457468657265756d205369676e6564204d6573736167653a0a3332600052603c60042090565b90506000610250610140860186610496565b81019061025d91906104e4565b50905061026a82826102a2565b336000908152602081905260409020546001600160a01b0390811691161461029757600192505050610185565b506000949350505050565b6000604051825184600052606084015160001a602052602084015160405260408401516060526020600160806000604185145afa519250503d6102ed57638baa579f6000526004601cfd5b600060605260405292915050565b60006020828403121561030d57600080fd5b81356001600160e01b03198116811461032557600080fd5b9392505050565b6001600160a01b038116811461034157600080fd5b50565b60006020828403121561035657600080fd5b81356103258161032c565b634e487b7160e01b600052604160045260246000fd5b600082601f83011261038857600080fd5b813567ffffffffffffffff808211156103a3576103a3610361565b604051601f8301601f19908116603f011681019082821181831017156103cb576103cb610361565b816040528381528660208588010111156103e457600080fd5b836020870160208301376000602085830101528094505050505092915050565b6000806040838503121561041757600080fd5b82359150602083013567ffffffffffffffff81111561043557600080fd5b61044185828601610377565b9150509250929050565b6000806040838503121561045e57600080fd5b823567ffffffffffffffff81111561047557600080fd5b8301610160818603121561048857600080fd5b946020939093013593505050565b6000808335601e198436030181126104ad57600080fd5b83018035915067ffffffffffffffff8211156104c857600080fd5b6020019150368190038213156104dd57600080fd5b9250929050565b600080604083850312156104f757600080fd5b823567ffffffffffffffff81111561050e57600080fd5b61051a85828601610377565b925050602083013561052b8161032c565b80915050925092905056fea26469706673582212201714da7e4580b5698662cec465c65d0fa401c9fbe11fa51a53f592ae1ba95f2d64736f6c63430008170033000000000000000000000000000000000000000000000000000000000000000000000000000000000000000000000000000000000000000000000000000000000000000000000000000000000000000000000000",
        "nonce": "0x17d",
        "accessList": []
      },
      "additionalContracts": [
        {
          "transactionType": "CREATE2",
          "address": "0x4079100019d2b0Da7bC0430D638d891A1418B442",
          "initCode": "0x608060405234801561001057600080fd5b5061056c806100206000396000f3fe608060405234801561001057600080fd5b50600436106100575760003560e01c806301ffc9a71461005c578063022914a71461008457806313af4035146100c55780631626ba7e14610104578063fff35b7214610130575b600080fd5b61006f61006a3660046102fb565b610151565b60405190151581526020015b60405180910390f35b6100ad610092366004610344565b6000602081905290815260409020546001600160a01b031681565b6040516001600160a01b03909116815260200161007b565b6101026100d3366004610344565b33600090815260208190526040902080546001600160a01b0319166001600160a01b0392909216919091179055565b005b610117610112366004610404565b61018b565b6040516001600160e01b0319909116815260200161007b565b61014361013e36600461044b565b61020c565b60405190815260200161007b565b60006001600160e01b03198216630b135d3f60e11b148061018557506001600160e01b0319821660016206524760e11b0319145b92915050565b6000806101bd846020527b19457468657265756d205369676e6564204d6573736167653a0a3332600052603c60042090565b90506101c981846102a2565b336000908152602081905260409020546001600160a01b039081169116146101fc57506001600160e01b03199050610185565b50630b135d3f60e11b9392505050565b60008061023e836020527b19457468657265756d205369676e6564204d6573736167653a0a3332600052603c60042090565b90506000610250610140860186610496565b81019061025d91906104e4565b50905061026a82826102a2565b336000908152602081905260409020546001600160a01b0390811691161461029757600192505050610185565b506000949350505050565b6000604051825184600052606084015160001a602052602084015160405260408401516060526020600160806000604185145afa519250503d6102ed57638baa579f6000526004601cfd5b600060605260405292915050565b60006020828403121561030d57600080fd5b81356001600160e01b03198116811461032557600080fd5b9392505050565b6001600160a01b038116811461034157600080fd5b50565b60006020828403121561035657600080fd5b81356103258161032c565b634e487b7160e01b600052604160045260246000fd5b600082601f83011261038857600080fd5b813567ffffffffffffffff808211156103a3576103a3610361565b604051601f8301601f19908116603f011681019082821181831017156103cb576103cb610361565b816040528381528660208588010111156103e457600080fd5b836020870160208301376000602085830101528094505050505092915050565b6000806040838503121561041757600080fd5b82359150602083013567ffffffffffffffff81111561043557600080fd5b61044185828601610377565b9150509250929050565b6000806040838503121561045e57600080fd5b823567ffffffffffffffff81111561047557600080fd5b8301610160818603121561048857600080fd5b946020939093013593505050565b6000808335601e198436030181126104ad57600080fd5b83018035915067ffffffffffffffff8211156104c857600080fd5b6020019150368190038213156104dd57600080fd5b9250929050565b600080604083850312156104f757600080fd5b823567ffffffffffffffff81111561050e57600080fd5b61051a85828601610377565b925050602083013561052b8161032c565b80915050925092905056fea26469706673582212201714da7e4580b5698662cec465c65d0fa401c9fbe11fa51a53f592ae1ba95f2d64736f6c63430008170033"
        }
      ],
      "isFixedGasLimit": false
    }
  ],
  "receipts": [
    {
      "transactionHash": "0x2711f080d512ca36f81824c1dc253cae99bcf44619d8dbc57515a7d4914dbadc",
      "transactionIndex": "0xd",
      "blockHash": "0x12b35a02b9f0976b9588105e7fc70e650db359a8d78887160870ab724bf160e8",
      "blockNumber": "0x29b26de",
      "from": "0x8749313F626B100b822D573c71dFffDaca383032",
      "to": "0xE6b4923Ca38A5310b96784e732a52BF4999ee6Ab",
      "cumulativeGasUsed": "0x45a9e5",
      "gasUsed": "0x6c329",
      "contractAddress": null,
      "logs": [
        {
          "address": "0xE6b4923Ca38A5310b96784e732a52BF4999ee6Ab",
          "topics": [
            "0x5dde8718f6fb5e98160fa4d6ba61b88207d09036b75765413d2d3f07272bfd3d",
            "0x0000000000000000000000004079100019d2b0da7bc0430d638d891a1418b442",
            "0x0000000000000000000000008749313f626b100b822d573c71dfffdaca383032"
          ],
          "data": "0x0cd0a23290a2d12b6053211f0330f671750c749a5da65bb42f91ff0af74d3a58",
          "blockHash": "0x12b35a02b9f0976b9588105e7fc70e650db359a8d78887160870ab724bf160e8",
          "blockNumber": "0x29b26de",
          "transactionHash": "0x2711f080d512ca36f81824c1dc253cae99bcf44619d8dbc57515a7d4914dbadc",
          "transactionIndex": "0xd",
          "logIndex": "0x71",
          "removed": false
        },
        {
          "address": "0x0000000000000000000000000000000000001010",
          "topics": [
            "0x4dfe1bbbcf077ddc3e01291eea2d5c70c2b422b415d95645b9adcfd678cb1d63",
            "0x0000000000000000000000000000000000000000000000000000000000001010",
            "0x0000000000000000000000008749313f626b100b822d573c71dfffdaca383032",
            "0x000000000000000000000000cfef2a3dc244ef7d0fb93c45e762d671445c4569"
          ],
          "data": "0x0000000000000000000000000000000000000000000000000002ceb4ca1245e40000000000000000000000000000000000000000000000000d146a2def2018ef0000000000000000000000000000000000000000000000f69553e5666d5b518d0000000000000000000000000000000000000000000000000d119b79250dd30b0000000000000000000000000000000000000000000000f69556b41b376d9771",
          "blockHash": "0x12b35a02b9f0976b9588105e7fc70e650db359a8d78887160870ab724bf160e8",
          "blockNumber": "0x29b26de",
          "transactionHash": "0x2711f080d512ca36f81824c1dc253cae99bcf44619d8dbc57515a7d4914dbadc",
          "transactionIndex": "0xd",
          "logIndex": "0x72",
          "removed": false
        }
      ],
      "status": "0x1",
      "logsBloom": "0x00000000010000000000000000000000000000000000000000000000000000000000000000000000000000000000000000008000000000000000000002000000000000000000000000000000000000800000001000000000020100000000000000000000000000000000000000000000000000000000000080000000000000000000000000000000000000200000000000001001008000000000000000000000200000000010000000000000000000000000000000002100000000000000004000000000000000000001000000000000000000000000000000100000000000000000000000000000000000000000000000000000000040080000840000100000",
      "type": "0x2",
      "effectiveGasPrice": "0x6a47d753"
    }
  ],
  "libraries": [],
  "pending": [],
  "returns": {},
  "timestamp": 1702914395,
  "chain": 80001,
  "multi": false,
  "commit": "88e10c1"
}